{
  "contractName": "TodoList",
  "abi": [
    {
      "constant": true,
      "inputs": [
        {
          "name": "",
          "type": "uint256"
        }
      ],
      "name": "tasks",
      "outputs": [
        {
          "name": "id",
          "type": "uint256"
        },
        {
          "name": "title",
          "type": "string"
        },
        {
          "name": "description",
          "type": "string"
        },
        {
          "name": "walletAddress",
          "type": "address"
        },
        {
          "name": "priority",
          "type": "string"
        },
        {
          "name": "status",
          "type": "string"
        },
        {
          "name": "date",
          "type": "uint256"
        }
      ],
      "payable": false,
      "stateMutability": "view",
      "type": "function"
    },
    {
      "constant": true,
      "inputs": [],
      "name": "taskCount",
      "outputs": [
        {
          "name": "",
          "type": "uint256"
        }
      ],
      "payable": false,
      "stateMutability": "view",
      "type": "function"
    },
    {
      "inputs": [],
      "payable": false,
      "stateMutability": "nonpayable",
      "type": "constructor"
    },
    {
      "anonymous": false,
      "inputs": [
        {
          "indexed": false,
          "name": "id",
          "type": "uint256"
        },
        {
          "indexed": false,
          "name": "title",
          "type": "string"
        },
        {
          "indexed": false,
          "name": "description",
          "type": "string"
        },
        {
          "indexed": false,
          "name": "walletAddress",
          "type": "address"
        },
        {
          "indexed": false,
          "name": "priority",
          "type": "string"
        },
        {
          "indexed": false,
          "name": "status",
          "type": "string"
        },
        {
          "indexed": false,
          "name": "date",
          "type": "uint256"
        }
      ],
      "name": "TaskCreated",
      "type": "event"
    },
    {
      "anonymous": false,
      "inputs": [
        {
          "indexed": false,
          "name": "id",
          "type": "uint256"
        },
        {
          "indexed": false,
          "name": "status",
          "type": "string"
        }
      ],
      "name": "TaskCompleted",
      "type": "event"
    },
    {
      "constant": false,
      "inputs": [
        {
          "name": "_title",
          "type": "string"
        },
        {
          "name": "_description",
          "type": "string"
        },
        {
          "name": "_priority",
          "type": "string"
        },
        {
          "name": "_status",
          "type": "string"
        },
        {
          "name": "_date",
          "type": "uint256"
        }
      ],
      "name": "createTask",
      "outputs": [],
      "payable": false,
      "stateMutability": "nonpayable",
      "type": "function"
    },
    {
      "constant": false,
      "inputs": [
        {
          "name": "_id",
          "type": "uint256"
        },
        {
          "name": "_title",
          "type": "string"
        },
        {
          "name": "_description",
          "type": "string"
        },
        {
          "name": "_priority",
          "type": "string"
        },
        {
          "name": "_status",
          "type": "string"
        },
        {
          "name": "_date",
          "type": "uint256"
        }
      ],
      "name": "updateTask",
      "outputs": [],
      "payable": false,
      "stateMutability": "nonpayable",
      "type": "function"
    },
    {
      "constant": false,
      "inputs": [
        {
          "name": "_id",
          "type": "uint256"
        }
      ],
      "name": "toggleCompleted",
      "outputs": [],
      "payable": false,
      "stateMutability": "nonpayable",
      "type": "function"
    },
    {
      "constant": false,
      "inputs": [
        {
          "name": "_id",
          "type": "uint256"
        }
      ],
      "name": "removeTask",
      "outputs": [],
      "payable": false,
      "stateMutability": "nonpayable",
      "type": "function"
    }
  ],
  "bytecode": "0x60806040526000805534801561001457600080fd5b5061169c806100246000396000f3fe6080604052600436106100775763ffffffff7c01000000000000000000000000000000000000000000000000000000006000350416634494936b811461007c578063455f5024146102cf5780638d977672146102f957806391ed7c57146104f4578063b6cb58a51461073e578063c308411714610765575b600080fd5b34801561008857600080fd5b506102cd600480360360c081101561009f57600080fd5b813591908101906040810160208201356401000000008111156100c157600080fd5b8201836020820111156100d357600080fd5b803590602001918460018302840111640100000000831117156100f557600080fd5b91908080601f016020809104026020016040519081016040528093929190818152602001838380828437600092019190915250929594936020810193503591505064010000000081111561014857600080fd5b82018360208201111561015a57600080fd5b8035906020019184600183028401116401000000008311171561017c57600080fd5b91908080601f01602080910402602001604051908101604052809392919081815260200183838082843760009201919091525092959493602081019350359150506401000000008111156101cf57600080fd5b8201836020820111156101e157600080fd5b8035906020019184600183028401116401000000008311171561020357600080fd5b91908080601f016020809104026020016040519081016040528093929190818152602001838380828437600092019190915250929594936020810193503591505064010000000081111561025657600080fd5b82018360208201111561026857600080fd5b8035906020019184600183028401116401000000008311171561028a57600080fd5b91908080601f016020809104026020016040519081016040528093929190818152602001838380828437600092019190915250929550509135925061078f915050565b005b3480156102db57600080fd5b506102cd600480360360208110156102f257600080fd5b5035610a85565b34801561030557600080fd5b506103236004803603602081101561031c57600080fd5b5035610f5d565b60405180888152602001806020018060200187600160a060020a0316600160a060020a03168152602001806020018060200186815260200185810385528b818151815260200191508051906020019080838360005b83811015610390578181015183820152602001610378565b50505050905090810190601f1680156103bd5780820380516001836020036101000a031916815260200191505b5085810384528a5181528a516020918201918c019080838360005b838110156103f05781810151838201526020016103d8565b50505050905090810190601f16801561041d5780820380516001836020036101000a031916815260200191505b5085810383528851815288516020918201918a019080838360005b83811015610450578181015183820152602001610438565b50505050905090810190601f16801561047d5780820380516001836020036101000a031916815260200191505b50858103825287518152875160209182019189019080838360005b838110156104b0578181015183820152602001610498565b50505050905090810190601f1680156104dd5780820380516001836020036101000a031916815260200191505b509b50505050505050505050505060405180910390f35b34801561050057600080fd5b506102cd600480360360a081101561051757600080fd5b81019060208101813564010000000081111561053257600080fd5b82018360208201111561054457600080fd5b8035906020019184600183028401116401000000008311171561056657600080fd5b91908080601f01602080910402602001604051908101604052809392919081815260200183838082843760009201919091525092959493602081019350359150506401000000008111156105b957600080fd5b8201836020820111156105cb57600080fd5b803590602001918460018302840111640100000000831117156105ed57600080fd5b91908080601f016020809104026020016040519081016040528093929190818152602001838380828437600092019190915250929594936020810193503591505064010000000081111561064057600080fd5b82018360208201111561065257600080fd5b8035906020019184600183028401116401000000008311171561067457600080fd5b91908080601f01602080910402602001604051908101604052809392919081815260200183838082843760009201919091525092959493602081019350359150506401000000008111156106c757600080fd5b8201836020820111156106d957600080fd5b803590602001918460018302840111640100000000831117156106fb57600080fd5b91908080601f01602080910402602001604051908101604052809392919081815260200183838082843760009201919091525092955050913592506111cc915050565b34801561074a57600080fd5b506107536114ca565b60408051918252519081900360200190f35b34801561077157600080fd5b506102cd6004803603602081101561078857600080fd5b50356114d0565b6040805160e08101825287815260208082018881528284018890523360608401526080830187905260a0830186905260c0830185905260008a815260018084529490208351815590518051939491936107f093928501929190910190611547565b506040820151805161080c916002840191602090910190611547565b50606082015160038201805473ffffffffffffffffffffffffffffffffffffffff1916600160a060020a039092169190911790556080820151805161085b916004840191602090910190611547565b5060a08201518051610877916005840191602090910190611547565b5060c082015181600601559050507f30a94aa78def75bc7da69119c96b92000e40c5fc7c95145b17bdcd727b3efec08686863387878760405180888152602001806020018060200187600160a060020a0316600160a060020a03168152602001806020018060200186815260200185810385528b818151815260200191508051906020019080838360005b8381101561091a578181015183820152602001610902565b50505050905090810190601f1680156109475780820380516001836020036101000a031916815260200191505b5085810384528a5181528a516020918201918c019080838360005b8381101561097a578181015183820152602001610962565b50505050905090810190601f1680156109a75780820380516001836020036101000a031916815260200191505b5085810383528851815288516020918201918a019080838360005b838110156109da5781810151838201526020016109c2565b50505050905090810190601f168015610a075780820380516001836020036101000a031916815260200191505b50858103825287518152875160209182019189019080838360005b83811015610a3a578181015183820152602001610a22565b50505050905090810190601f168015610a675780820380516001836020036101000a031916815260200191505b509b50505050505050505050505060405180910390a1505050505050565b610a8d6115c5565b600082815260016020818152604092839020835160e0810185528154815281840180548651600296821615610100026000190190911695909504601f81018590048502860185019096528585529094919385840193909290830182828015610b365780601f10610b0b57610100808354040283529160200191610b36565b820191906000526020600020905b815481529060010190602001808311610b1957829003601f168201915b5050509183525050600282810180546040805160206001841615610100026000190190931694909404601f81018390048302850183019091528084529381019390830182828015610bc85780601f10610b9d57610100808354040283529160200191610bc8565b820191906000526020600020905b815481529060010190602001808311610bab57829003601f168201915b50505091835250506003820154600160a060020a031660208083019190915260048301805460408051601f60026000196001861615610100020190941693909304928301859004850281018501825282815294019392830182828015610c6f5780601f10610c4457610100808354040283529160200191610c6f565b820191906000526020600020905b815481529060010190602001808311610c5257829003601f168201915b505050918352505060058201805460408051602060026001851615610100026000190190941693909304601f8101849004840282018401909252818152938201939291830182828015610d035780601f10610cd857610100808354040283529160200191610d03565b820191906000526020600020905b815481529060010190602001808311610ce657829003601f168201915b50505091835250506006919091015460209182015260408051808201909152600181527f31000000000000000000000000000000000000000000000000000000000000009082015260a082015180519101209091507fc89efdaa54c0f20c7adf612882df0950f5a951637e0307cdcb4c672f298b8bc614610db75760408051808201909152600181527f31000000000000000000000000000000000000000000000000000000000000006020820152610dec565b60408051808201909152600181527f300000000000000000000000000000000000000000000000000000000000000060208201525b60a082015260008281526001602081815260409092208351815582840151805185949293610e1f93908501920190611547565b5060408201518051610e3b916002840191602090910190611547565b50606082015160038201805473ffffffffffffffffffffffffffffffffffffffff1916600160a060020a0390921691909117905560808201518051610e8a916004840191602090910190611547565b5060a08201518051610ea6916005840191602090910190611547565b5060c082015181600601559050507f7e6ffc29fe63759579d96a0457a8f2e08339aca345bd469f59dc2e61f82a5aeb828260a001516040518083815260200180602001828103825283818151815260200191508051906020019080838360005b83811015610f1e578181015183820152602001610f06565b50505050905090810190601f168015610f4b5780820380516001836020036101000a031916815260200191505b50935050505060405180910390a15050565b600160208181526000928352604092839020805481840180548651600296821615610100026000190190911695909504601f81018590048502860185019096528585529094919392909190830182828015610ff95780601f10610fce57610100808354040283529160200191610ff9565b820191906000526020600020905b815481529060010190602001808311610fdc57829003601f168201915b50505060028085018054604080516020601f600019610100600187161502019094169590950492830185900485028101850190915281815295969594509092509083018282801561108b5780601f106110605761010080835404028352916020019161108b565b820191906000526020600020905b81548152906001019060200180831161106e57829003601f168201915b50505050600383015460048401805460408051602060026101006001861615026000190190941693909304601f81018490048402820184019092528181529596600160a060020a03909416959394509083018282801561112c5780601f106111015761010080835404028352916020019161112c565b820191906000526020600020905b81548152906001019060200180831161110f57829003601f168201915b5050505060058301805460408051602060026001851615610100026000190190941693909304601f81018490048402820184019092528181529495949350908301828280156111bc5780601f10611191576101008083540402835291602001916111bc565b820191906000526020600020905b81548152906001019060200180831161119f57829003601f168201915b5050505050908060060154905087565b6000805460019081018083556040805160e08101825282815260208082018b81528284018b9052336060840152608083018a905260a0830189905260c08301889052938652848152919094208451815591518051929361123493908501929190910190611547565b5060408201518051611250916002840191602090910190611547565b50606082015160038201805473ffffffffffffffffffffffffffffffffffffffff1916600160a060020a039092169190911790556080820151805161129f916004840191602090910190611547565b5060a082015180516112bb916005840191602090910190611547565b5060c082015181600601559050507f30a94aa78def75bc7da69119c96b92000e40c5fc7c95145b17bdcd727b3efec060005486863387878760405180888152602001806020018060200187600160a060020a0316600160a060020a03168152602001806020018060200186815260200185810385528b818151815260200191508051906020019080838360005b83811015611360578181015183820152602001611348565b50505050905090810190601f16801561138d5780820380516001836020036101000a031916815260200191505b5085810384528a5181528a516020918201918c019080838360005b838110156113c05781810151838201526020016113a8565b50505050905090810190601f1680156113ed5780820380516001836020036101000a031916815260200191505b5085810383528851815288516020918201918a019080838360005b83811015611420578181015183820152602001611408565b50505050905090810190601f16801561144d5780820380516001836020036101000a031916815260200191505b50858103825287518152875160209182019189019080838360005b83811015611480578181015183820152602001611468565b50505050905090810190601f1680156114ad5780820380516001836020036101000a031916815260200191505b509b50505050505050505050505060405180910390a15050505050565b60005481565b6000818152600160208190526040822082815591906114f19083018261160c565b6114ff60028301600061160c565b60038201805473ffffffffffffffffffffffffffffffffffffffff1916905561152c60048301600061160c565b61153a60058301600061160c565b6006820160009055505050565b828054600181600116156101000203166002900490600052602060002090601f016020900481019282601f1061158857805160ff19168380011785556115b5565b828001600101855582156115b5579182015b828111156115b557825182559160200191906001019061159a565b506115c1929150611653565b5090565b60e0604051908101604052806000815260200160608152602001606081526020016000600160a060020a031681526020016060815260200160608152602001600081525090565b50805460018160011615610100020316600290046000825580601f106116325750611650565b601f0160209004906000526020600020908101906116509190611653565b50565b61166d91905b808211156115c15760008155600101611659565b9056fea165627a7a72305820ee962672d0e12021e70da7a102470dc70a61a4cc0415493cffbbafd6c9a1a50a0029",
  "source": "pragma solidity ^0.5.0;\r\n//pragma experimental ABIEncoderV2;\r\n\r\ncontract TodoList {\r\n  uint public taskCount = 0;\r\n\r\n  struct Task {\r\n    uint id;\r\n    string title;\r\n    string description;\r\n    address walletAddress;\r\n    string priority;\r\n    string status;\r\n    uint date;\r\n  }\r\n\r\n  mapping(uint => Task) public tasks;\r\n\r\n  event TaskCreated(\r\n    uint id,\r\n    string title,\r\n    string description,\r\n    address walletAddress,\r\n    string priority,\r\n    string status,\r\n    uint  date\r\n  );\r\n\r\n  event TaskCompleted(\r\n    uint id,\r\n    string status\r\n  );\r\n\r\n  constructor() public {\r\n \r\n  }\r\n\r\n  function createTask( string memory _title,  string memory _description, string memory _priority, string memory _status, uint  _date) public {\r\n    taskCount ++;\r\n    tasks[taskCount] = Task(taskCount, _title, _description, msg.sender, _priority, _status, _date);\r\n    emit TaskCreated(taskCount, _title,_description, msg.sender, _priority,_status, _date);\r\n  }\r\n\r\n  function updateTask(uint _id, string memory _title,  string memory _description, string memory _priority, string memory _status, uint  _date) public {\r\n    tasks[_id] = Task(_id, _title, _description, msg.sender, _priority, _status, _date);\r\n    emit TaskCreated(_id, _title, _description, msg.sender, _priority,_status, _date);\r\n  }\r\n  \r\n\r\n  function toggleCompleted(uint _id) public {\r\n    Task memory _task = tasks[_id];\r\n    _task.status = keccak256(bytes(_task.status))  == keccak256(bytes(\"1\")) ? '0' : '1';\r\n    tasks[_id] = _task;\r\n    emit TaskCompleted(_id, _task.status);\r\n  }\r\n\r\n function removeTask(uint _id) public {\r\n     delete tasks[_id];\r\n    }\r\n\r\n}\r\n",
  "sourcePath": "C:/projects/todo-list/toto-blockchain/contracts/TodoList.sol",
  "compiler": {
    "name": "solc",
    "version": "0.5.0+commit.1d4f565a.Emscripten.clang"
  },
  "schemaVersion": "3.0.1",
  "updatedAt": "2022-03-18T14:32:56.767Z",
  "devdoc": {
    "methods": {}
  },
  "userdoc": {
    "methods": {}
  }
}